:020000040000FA
:1000000008080020D5000000E7000000E90000001B
:1000100000000000000000000000000000000000E0
:10002000000000000000000000000000EB000000E5
:100030000000000000000000ED000000EF000000E4
:10004000F1000000F1000000F1000000F1000000EC
:10005000F100000000000000F1000000F1000000CD
:10006000F1000000F1000000F1000000F1000000CC
:10007000F1000000F1000000F1000000F1000000BC
:10008000F1000000F1000000F1000000F1000000AC
:10009000F1000000F1000000F1000000F10000009C
:1000A000F1000000F100000000000000000000006E
:1000B0000000000000000000000000000000000040
:1000C0000348854600F01CF80048004799010000ED
:1000D00008080020074802680F210A43026006480A
:1000E000804706480047FEE7FEE7FEE7FEE7FEE73B
:1000F000FEE700002405004025010000C1000000CB
:10010000064C0125064E05E02046E36807C82B4350
:1001100098471034B442F7D3FFF7D6FF50030000DE
:10012000600300000648008D0006000F012805D17D
:10013000044805494860C8130449886170470000B5
:10014000C00F00F0DFFF07C000050040006C00405A
:1001500002E008C8121F08C1002AFAD17047704790
:10016000002001E001C1121F002AFBD1704770B5C9
:100170000446200E00F0DAF80506200C00F0D6F850
:1001800000040543200A00F0D1F800020543204690
:1001900000F0CCF8284370BD0020274908600120FA
:1001A0008107086000BF244800680028FBD00820B1
:1001B0000F2108E0012205231B07072424021B1935
:1001C00084001A51401C8842F4D900BF00F046F860
:1001D0005521012000F03CF82CE0184818494860EF
:1001E00000201849086001201749486000BF1548E1
:1001F00000680028FBD000201249C8600120124985
:10020000886000BF0F48C0680028FBD00F48006816
:10021000012804D109480178012000F019F80020D4
:100220000849086101200849086100BF05480069C4
:100230000028FBD0D1E700000001004000000020B2
:100240000015004000110040001000400014004064
:10025000014A115400BF70470405005010B500203A
:100260002C49C8600720886000200861C32000F086
:100270005DF80406C22000F059F800040443C120D0
:1002800000F054F800020443C02000F04FF804438B
:1002900020484462C72000F049F80406C62000F058
:1002A00045F800040443C52000F040F80002044370
:1002B000C42000F03BF80443164884621648FFF758
:1002C00056FF1449C8611548FFF751FF11490862EC
:1002D0000020C8620120086300204861104888613E
:1002E000022048630846406B8007800F022804D133
:1002F0000C48C8630C4888630BE00648406B8007D5
:10030000800F012805D1FF200249C863FF20083073
:10031000886310BD0015004067452301EFCDAB8910
:1003200001010401FFFF00002110010010B5024689
:100330000020D2B2002108E01346CB40DB07DB0FE0
:100340000724641AA3401843491C0829F4D310BD9C
:1003500060030000000000200400000050010000C5
:040360000000000099
:04000005000000C136
:00000001FF
