:020000040000FA
:10000000C8080020F50000000701000009010000F9
:1000100000000000000000000000000000000000E0
:100020000000000000000000000000000B010000C4
:1000300000000000000000000D0100000F010000A2
:100040001101000011010000110100001101000068
:10005000110100000000000011010000110100006A
:100060001101000011010000110100001101000048
:100070001101000011010000110100001101000038
:100080001101000011010000110100001101000028
:100090001101000011010000110100001101000018
:1000A000110100001101000000000000000000002C
:1000B0000000000000000000000000000000000040
:1000C0000348854600F02CF8004800477101000005
:1000D000C8080020401E00BF00BF00BF00BF00BF17
:1000E00000BF00BF00BF00BF00BF00BF00BFF1D115
:1000F00070470000074802680F210A430260064863
:10010000804706480047FEE7FEE7FEE7FEE7FEE71A
:10011000FEE700002405004045010000C10000008A
:10012000064C0125064E05E02046E36807C82B4330
:1001300098471034B442F7D3FFF7C6FF24040000F9
:10014000240400000648008D0006000F012805D198
:10015000044805494860C813044988617047000095
:10016000C00F00F0DFFF07C000050040006C00403A
:10017000FF20013015498861400088614000886196
:1001800023E00121002000F013F90446002C14D0D4
:10019000012080020D4988607D20C00000F018F821
:1001A000012080020949C8607D20C00000F010F8DD
:1001B0000021084600F0FCF80446002C05D1FF2081
:1001C00001300249886000BFFEE7DAE70005005011
:1001D00010B5044603E0641E0248FFF77BFF002CC5
:1001E000F9D110BDE703000010B58A0005231B07F5
:1001F000072424021B1984001A5110BD0121052275
:10020000120707231B02D2188300D1507047000049
:1002100001218140014A91607047000000050050B3
:10022000F7B506460F46002E01D13B4800E03B489B
:100230000446002E1ED11F20FFF7E0FF1420FFF719
:10024000DDFF00211620FFF7CFFF1E20FFF7D6FFAE
:100250001F2005210902611888601420810161189E
:10026000C860162005210902611808611E20FFF7E9
:10027000CFFF1EE01D20FFF7C1FF1520FFF7BEFFD7
:1002800000211720FFF7B0FF1C20FFF7B7FF1D204C
:1002900005210902611888601520052109026118ED
:1002A000C860172005210902611808611C20FFF7AA
:1002B000AFFF012000070521090261184862002FE5
:1002C00006D0012F06D0022F06D0032F08D105E05B
:1002D000002507E0022505E0042503E0062501E0EE
:1002E000002500BF00BF0298002806D00120284347
:1002F000152189016118486103E01520800120184B
:1003000045610021FF20093001510120052109022A
:10031000611808602046FEBD0030004000400040EB
:10032000FFB581B000270026019D1F48019D854231
:1003300001D11E2400E01C2400BF0120A0401B4965
:10034000C86000BF27E00398805D05210902691895
:10035000C86100E07F1CFF2009304059002803D10C
:10036000032000038742F5D303200003874205D111
:100370002046FFF74DFF002005B0F0BD0021FF2013
:10038000093041510520000228188069C1B2049843
:100390008155701C86B202988642D4DB2046FFF756
:1003A00037FF0120E8E70000003000400005005062
:1003B00070B506460D46002D01D0012000E000205A
:1003C000024600213046FFF72BFF0446002C00D1E7
:1003D00070BD002006E0114908540021104A115454
:1003E000411CC8B26428F6DB0D4B0C4A6421204640
:1003F000FFF796FF002800D1EAE7002109E007484F
:10040000405C074A525C904201D00020E0E7481C63
:10041000C1B26429F3DB0120DAE70000000000200C
:040420006400002054
:04000005000000C136
:00000001FF
