:020000040000FA
:10000000000C0020D5000000E7000000E90000001F
:1000100000000000000000000000000000000000E0
:10002000000000000000000000000000EB000000E5
:100030000000000000000000ED000000EF000000E4
:10004000F1000000F1000000F1000000F1000000EC
:10005000F100000000000000F1000000F1000000CD
:10006000F1000000F1000000F1000000F1000000CC
:10007000F1000000F1000000F1000000F1000000BC
:10008000F1000000F1000000F1000000F1000000AC
:10009000F1000000F1000000F1000000F10000009C
:1000A000F1000000F100000000000000000000006E
:1000B0000000000000000000000000000000000040
:1000C0000348854600F01CF8004800477101000015
:1000D000000C0020074802680F210A43026006480E
:1000E000804706480047FEE7FEE7FEE7FEE7FEE73B
:1000F000FEE700002405004025010000C1000000CB
:10010000064C0125064E05E02046E36807C82B4350
:1001100098471034B442F7D3FFF7D6FFD404000059
:10012000E40400000648008D0006000F012805D1F8
:10013000044805494860C8130449886170470000B5
:10014000C00F00F0DFFF07C000050040006C00405A
:1001500002E008C8121F08C1002AFAD17047704790
:10016000002001E001C1121F002AFBD170470000EE
:10017000F0B585B0002400250020039001200290F6
:1001800000200523072206210090082000F0AAF88D
:1001900000220221104600F0FBF80190019800288F
:1001A00001D105B0F0BD082000F066F8092000F08C
:1001B00063F8042003218A0005231B070726360263
:1001C0009B1986009A5100BF46E0002728E00020D6
:1001D0000390002407E000F0BBF8C0B203901F4971
:1001E00003980855641C03980D28F4D1651E002659
:1001F00004E01A49885D00F0BBF8761CAE42F8DBDB
:10020000A9B2174B154A019800F028F9002604E01E
:100210001349885D00F0ACF8761CAE42F8DB7F1C19
:10022000202FD4DB17E002E0042000F049F804207E
:1002300000F046F80128F7D0094B084AD821019868
:1002400000F00CF9002604E00549885D00F090F804
:10025000761CD82EF8DBE6E7B7E7000000000020A8
:100260000002002010B58A0005231B070724240282
:100270001B1984001A5110BD012105221207072302
:100280001B02D2188300D1507047012105221207AA
:1002900007231B02D2188300D15070470121052289
:1002A000120707231B02D2188300D15070470000A9
:1002B00001218140014AD1607047000000050050D3
:1002C000014603480069C840C007C00F70470000DE
:1002D0000005005001218140014A916070470000F3
:1002E00000050050F8B507460C4615461E46204648
:1002F000FFF7D4FF00213046FFF7B4FF1048C46079
:100300004661069800280DD03846FFF7C7FF002148
:100310002846FFF7A7FF0A480561876001200849C2
:100320004031C8620748064948620420086001203D
:10033000054988600860002004498860F8BD000015
:100340000025004000E0D7010020004000210040CF
:1003500000BF054880680128FBD100200249886061
:1003600002488069C0B2704700210040002500406B
:100370000549C86100BF0549C9690129FBD10021B0
:10038000024AD16170470000002500400021004072
:10039000F7B50646002E01D12E4800E02E4804464F
:1003A0000020FFF772FF0120FFF76FFF02200021FE
:1003B0008A0005231B0707273F02DB198700DA5154
:1003C00000BF0320FFF761FF00200521090261182B
:1003D00088600120052109026118C86002200521FA
:1003E0000902611808610320FFF774FF012040062D
:1003F00005210902611848620198002806D00128E9
:1004000006D0022806D0032808D105E0002507E021
:10041000022505E0042503E0062501E0002500BFD4
:1004200000BF0298002806D0012028431521890129
:100430006118486103E01520800120184561002102
:10044000FF200930015101200521090261180860CF
:100450002046FEBD0030004000400040FFB581B0A6
:100460000746002600243D46032000900098FFF731
:100470001FFF27E00398005D052109026918C86184
:1004800000E0761CFF2009304059002803D10320EA
:1004900000038642F5D303200003864205D100986D
:1004A000FFF718FF002005B0F0BD0021FF20093044
:1004B00041510520000228188069C1B204980155F5
:1004C000601C84B202988442D4DB0098FFF702FFDC
:1004D0000120E8E7E404000000000020000C000018
:0404E00060010000B7
:04000005000000C136
:00000001FF
