:020000040000FA
:10000000000C0020D5000000E7000000E90000001F
:1000100000000000000000000000000000000000E0
:10002000000000000000000000000000EB000000E5
:100030000000000000000000ED000000EF000000E4
:10004000F1000000F1000000F1000000F1000000EC
:10005000F100000000000000F1000000F1000000CD
:10006000F1000000F1000000F1000000F1000000CC
:10007000F1000000F1000000F1000000F1000000BC
:10008000F1000000F1000000F1000000F1000000AC
:10009000F1000000F1000000F1000000F10000009C
:1000A000F1000000F100000000000000000000006E
:1000B0000000000000000000000000000000000040
:1000C0000348854600F01CF8004800477101000015
:1000D000000C0020074802680F210A43026006480E
:1000E000804706480047FEE7FEE7FEE7FEE7FEE73B
:1000F000FEE700002405004025010000C1000000CB
:10010000064C0125064E05E02046E36807C82B4350
:1001100098471034B442F7D3FFF7D6FF6C040000C1
:100120007C0400000648008D0006000F012805D160
:10013000044805494860C8130449886170470000B5
:10014000C00F00F0DFFF07C000050040006C00405A
:1001500002E008C8121F08C1002AFAD17047704790
:10016000002001E001C1121F002AFBD170470000EE
:10017000FEB50024002500270020102312221121A3
:100180000090132000F07CF800221146104600F089
:10019000CDF801900198002800D1FEBD082000F0A4
:1001A00043F8092000F040F8182003218A000523B5
:1001B0001B07072636029B1986009A5100BF23E0D1
:1001C0000027002405E000F091F8C7B20F4807555A
:1001D000641C0D2FF7D1651E002604E00B49885DD5
:1001E00000F094F8761CAE42F8DBA9B2084B074A3F
:1001F000019800F0FFF8002604E00549885D00F052
:1002000085F8761CAE42F8DBDAE70000000000203B
:100210000002002010B58A0005231B0707242402D2
:100220001B1984001A5110BD012105221207072352
:100230001B02D2188300D1507047012105221207FA
:1002400007231B02D2188300D150704701210522D9
:10025000120707231B02D2188300D15070470000F9
:1002600001218140014AD160704700000005005023
:1002700001218140014A9160704700000005005053
:10028000F8B507460C4615461E462046FFF7DEFF2A
:1002900000213046FFF7BEFF1048C4604661069853
:1002A00000280DD03846FFF7D1FF00212846FFF780
:1002B000B1FF0A4805618760012008494031C862E2
:1002C0000748064948620420086001200549886003
:1002D0000860002004498860F8BD00000025004047
:1002E00000E0D701002000400021004000BF054889
:1002F00080680128FBD1002002498860024880699B
:10030000C0B2704700210040002500400549C86187
:1003100000BF0549C9690129FBD10021024AD16109
:10032000704700000025004000210040F7B5064658
:10033000002E01D12D4800E02D4804461620FFF77D
:100340007CFF1420FFF779FF152000218A000307A6
:1003500007273F02DB198700DA5100BF1720FFF79C
:100360006CFF1620052109026118886014208101A4
:100370006118C8601520052109026118086117205D
:10038000FFF776FF01204006052109026118486247
:100390000198002806D0012806D0022806D003289C
:1003A00008D105E0002507E0022505E0042503E06B
:1003B000062501E0002500BF00BF0298002806D0F6
:1003C00001202843152189016118486103E01520A7
:1003D0008001201845610021FF20093001510120D2
:1003E00005210902611808602046FEBD003000406A
:1003F00000400040FFB581B00746002600243D467E
:10040000172000900098FFF72BFF27E00398005D6E
:10041000052109026918C86100E0761CFF20093037
:100420004059002803D1032000038642F5D303205E
:100430000003864205D10098FFF71AFF002005B09F
:10044000F0BD0021FF20093041510520000228188D
:100450008069C1B204980155601C84B2029884423C
:10046000D4DB0098FFF704FF0120E8E77C040000DC
:0C04700000000020000C000060010000F3
:04000005000000C136
:00000001FF
