:020000040000FA
:1000000000080020F50000000701000009010000C1
:1000100000000000000000000000000000000000E0
:100020000000000000000000000000000B010000C4
:1000300000000000000000000D0100000F010000A2
:100040001101000011010000110100001101000068
:10005000110100000000000011010000110100006A
:100060001101000011010000110100001101000048
:100070001101000011010000110100001101000038
:100080001101000011010000110100001101000028
:100090001101000011010000110100001101000018
:1000A000110100001101000000000000000000002C
:1000B0000000000000000000000000000000000040
:1000C0000348854600F02CF8004800477101000005
:1000D00000080020401E00BF00BF00BF00BF00BFDF
:1000E00000BF00BF00BF00BF00BF00BF00BFF1D115
:1000F00070470000074802680F210A430260064863
:10010000804706480047FEE7FEE7FEE7FEE7FEE71A
:10011000FEE700002405004045010000C10000008A
:10012000064C0125064E05E02046E36807C82B4330
:1001300098471034B442F7D3FFF7C6FFCC01000054
:10014000CC0100000648008D0006000F012805D1F3
:10015000044805494860C813044988617047000095
:10016000C00F00F0DFFF07C000050040006C00403A
:10017000002408200F2108E0012205231B07072582
:100180002D025B1985005A51401C8842F4D900BFEA
:100190000DE001210A46A240D0B2054A505400BFEA
:1001A00000BF601C4407640F642000F003F8F0E710
:1001B0000405005010B5044603E0641E0248FFF732
:0C01C00089FF002CF9D110BDE7030000FE
:04000005000000C136
:00000001FF
