:020000040001F9
:10400000883B0020C1410100D3410100D54101009E
:1040100000000000000000000000000000000000A0
:10402000000000000000000000000000D741010077
:104030000000000000000000D9410100DB41010048
:10404000DD410100DD410100DD410100DD410100F4
:10405000DD41010000000000DD410100DD41010003
:10406000DD410100DD410100DD410100DD410100D4
:10407000DD410100DD410100DD410100DD410100C4
:10408000DD41010099670100DD410100DD410100D2
:10409000BB670100217E0100656B0100DD4101006D
:1040A000DD410100DD4101000000000000000000D2
:1040B0000000000000000000000000000000000000
:1040C00000F002F800F040F80CA030C808382418BE
:1040D0002D18A246671EAB4654465D46AC4201D140
:1040E00000F032F87E460F3E0FCCB6460126334232
:1040F00000D0FB1AA246AB4633431847A441000048
:10410000C4410000103A02D378C878C1FAD85207E7
:1041100001D330C830C101D504680C60704700007D
:104120000023002400250026103A01D378C1FBD8D3
:10413000520700D330C100D50B6070471FB5C04691
:10414000C0461FBD10B510BD04F072F81146FFF750
:10415000F5FF00F074FD04F08AF803B4FFF7F2FFF6
:1041600003BC04F08FF80000401E00BF00BF00BF7A
:1041700000BF00BF00BF00BF00BF00BF00BF00BF47
:1041800000BFF1D17047000070B505460C461646D9
:1041900002E00FCC0FC5103E102EFAD2082E02D32B
:1041A00003CC03C5083E042E07D301CC01C5361F3E
:1041B00003E021782970641C6D1C761EF9D270BD55
:1041C0000A4802680F210A430260094880470948EB
:1041D0000047FEE7FEE7FEE7FEE7FEE7FEE700003A
:1041E00005480649064A074B704700002405004071
:1041F00009420100C1400100882B0020883B0020BB
:1042000088330020883300200848008D0006000F06
:10421000012805D1064807494860C8130649886146
:10422000704706480649086070470000C00F00F05C
:10423000DFFF07C000050040006C00400024F400D0
:104240000020002005460C4616463146FE4803F085
:104250004BFEFE490C80FE48056008460088FC487D
:1042600000680F2000F00DFDA2B23146F94801F0C0
:10427000F4FA00BFFEE704460D462946F64803F06F
:1042800033FEF648048000880F2000F0FAFC224636
:104290002946F04801F0E1FA00BFFEE770B5F049A9
:1042A000F04801F0A6FEC5B22946EF4801F055F8E6
:1042B0000446002C0DD0082C0BD0EC48844208D0CA
:1042C000EB48844205D000BFEAA2CB212046FFF78D
:1042D000B9FF70BD10B50446FFF7E0FF10BD70B523
:1042E0000646E749E74801F084FE85B2E6480068E3
:1042F000401CE54908602946E44801F01DFA0446DF
:10430000002C0DD0082C0BD0D848844208D0D848B7
:10431000844205D000BFD7A2FC212046FFF792FFC0
:104320000321D948006803F0D3FE002901D0012001
:1043300000E00020D649087070BD70B50546D4482D
:104340000078002809D0D349D34801F052FE84B246
:104350002146CE4801F01FFA00BF70BD10B50446DB
:10436000CE48007801214840CC49087008460178C1
:10437000C64801F041FA10BD00BF00BF032005216F
:104380000907072212028918086200BF00BF00BF98
:1043900000BF052109078918486200BF00BF00BFA0
:1043A00000BF052109078918C86300BF00BF704717
:1043B000F8B500BF0020BA4B05221146009002F06C
:1043C00000FA054600BF2E46002E06D000BFA9A267
:1043D000FF2144313046FFF735FF00BF00BFB14A2F
:1043E0000121B14802F06AFA044600BF2546002DBB
:1043F00006D000BF9FA2FF214A312846FFF722FFC7
:1044000000BFAA4A0121AA4802F058FA044600BF98
:104410002546002D06D000BF96A2FF214F31284629
:10442000FFF710FF00BFA34A0121A34802F046FA9C
:10443000044600BF2546002D06D000BF8DA2FF21F7
:1044400054312846FFF7FEFE00BF9C4A01219C48DC
:1044500002F034FA044600BF2546002D06D000BF06
:1044600084A2FF2159312846FFF7ECFE00BFF8BDBA
:104470003EB500BF6846007801090901491C00915A
:1044800068460078F02188431030009000BF0A226F
:104490008CA168466CDF044600BF2546002D06D07F
:1044A00000BF74A2FF216B312846FFF7CBFE00BF8F
:1044B000874868DF044600BF2546002D06D000BFB0
:1044C0006CA2FF216E312846FFF7BCFE00BF002022
:1044D00001900290FF219131684681804900C1809E
:1044E00000210181FF219131418101A86ADF044649
:1044F00000BF2546002D06D000BF5EA2FF21783107
:104500002846FFF79FFE00BF3EBD30B593B00621A1
:104510000391704A07CA6B4607C33C2104A803F005
:10452000D5FD02200490012168464175018303A94D
:1045300007910321818569460C91002104A801F0AF
:10454000BFFC044600BF2546002D06D000BF49A28F
:10455000FF2199312846FFF775FE00BF14215E4800
:1045600003F0B4FD00205C49087048600872282000
:104570000882B420488213B030BD30B59BB003210F
:104580000091142116A803F0A1FD0020169001212E
:1045900010A801776846189000BF18A80079010993
:1045A0000901491C18A801710079F02188431030D5
:1045B00018A9087100BF00BF16A8407B00090001C0
:1045C00016A9487316A8407BF021884316A94873A2
:1045D00000BF00BF16A8807B00090001887316A8E1
:1045E000807BF021884316A9887300BF00BF18A8FC
:1045F000C07901090901491C18A8C171C079F021CD
:104600008843103018A9C87100BF00BF16A8007CED
:104610000009000116A9087416A8007CF02188433F
:1046200016A9087400BF194801F050F8044600BFED
:104630002546002D06D000BF0EA2FF21C43128461A
:10464000FFF700FE00BF49E0002100200820002005
:104650000C200020EFBEADDE8021002010200020C5
:104660005C25002020200020F424002003300000DE
:10467000013400002E2E5C6D61696E2E6300000017
:104680006C25002028200020142000200C2500206C
:10469000062000207C25002030200020182000204B
:1046A00000220020D542010038200020DF42010016
:1046B0003C2000203B430100402000205D430100DE
:1046C000442000204E6F726469635F48524D0000C1
:1046D0004103000094820100E0240020142111A86D
:1046E00003F0F4FC00BF10A8407C01090901491C3B
:1046F00010A84174407CF0218843103010A9487400
:1047000000BF00BF11A8807B00090001401C11A957
:10471000887311A8807BF0218843103011A9887319
:1047200000BF00BF11A8C07B00090001C87311A819
:10473000C07BF021884311A9C87300BF00BF10A837
:10474000007D01090901491C10A80175007DF021B7
:104750008843103010A9087500BF00201190012176
:1047600010A8017200201390642110A8017411A9EF
:10477000FE4800F0D1FD044600BF2546002D06D0BE
:1047800000BFFB4AFF21D6312846FFF75BFD00BF83
:10479000402101A803F09AFCF6A101A801F0F6FB64
:1047A00000BF10A8007801090901491C10A8017078
:1047B0000078F0218843103010A9087000BF00BFB6
:1047C00010A8407800090001487010A84078F02136
:1047D000884310A9487000BF01A800F075FB04468B
:1047E00000BF2546002D06D000BFE14AFF21E13180
:1047F0002846FFF727FD00BF1BB030BD10B5512084
:10480000E149086064204860012088600873DF483F
:1048100001F0E2FB8C20DE490860FF202D3048606B
:104820000A20886000200873DA4801F0D5FB642074
:10483000D9490860FF20F5304860012088600020D9
:104840000873D64801F0C8FB10BD1E20D44908806B
:104850000846807840084000401C887008468078F0
:1048600002218843CE498870084680781C218843FD
:104870000C30CB4988700846807820218843C8498D
:1048800088700720C87010200871704770B500222A
:1048900001210904C348006802F07CF8044600BF07
:1048A0002546002D05D000BFB14ABF492846FFF775
:1048B000C9FC00BF00220121C903BC48006802F006
:1048C00069F8044600BF2546002D06D000BFA84A5F
:1048D0004321C9002846FFF7B5FC00BF0022B449B8
:1048E000B448006802F056F8044600BF2546002D83
:1048F00006D000BF9E4AAC49891D2846FFF7A2FC9E
:1049000000BF00220521C903AB48006802F042F84D
:10491000044600BF2546002D06D000BF944AA24998
:1049200009312846FFF78EFC00BF70BD70B5A34863
:1049300063DF044600BF2546002D06D000BF8C4A29
:10494000994914312846FFF77DFC00BF082000F08C
:1049500098F970BD70B5054600BF2868002801D1E0
:10496000012000E000200646002E05D100BF804A4D
:104970008D492831FFF766FC00BF3B219048008835
:1049800066DF044600BF2646002E06D000BF784AE8
:10499000092189013046FFF755FC00BF70BD044670
:1049A00000BF734A804935312046FFF74BFC30B5D4
:1049B00087B01C21684603F089FB00200090052089
:1049C000C003019002900321684601737D488189EC
:1049D0006846C181002101747B4805907B480690A0
:1049E000684602F050F9044600BF2546002D06D067
:1049F00000BF5F4A6C494C312846FFF723FC00BFDB
:104A000007B030BD70B5044600252088102806D0B8
:104A100011280ED0132825D0192833D129E00920D8
:104A200000F02FF9082000F031F9A08864490880CF
:104A300029E0092000F02AF90020C04360490880DD
:104A400002F06CFF054600BF2E46002E06D000BFC8
:104A5000474A554966313046FFF7F4FB00BFFFF780
:104A600065FF10E04E4A0021554800886FDF05467B
:104A700009E0A079002804D1082000F007F931DF0F
:104A8000054600E000BF00BF00BF2E46002E06D046
:104A900000BF374AA52189003046FFF7D3FB00BF8E
:104AA00070BD10B50446204602F009FF2146454876
:104AB00000F0C9FC21462D4800F031FB204602F0F1
:104AC00096F92046FFF79EFF10BD38B500BF0020C5
:104AD0003F4B50223F4900900D2001F0FCFF04465F
:104AE00000BF2546002D06D000BF214A2E499A312D
:104AF0002846FFF7A7FB00BF00BF38BD00BF00BFBF
:104B0000032000043449086000BF00BF00BF00BF9D
:104B100005210907072212028918486000BF00BF5B
:104B20007047044600BF124A1F49B1312046FFF7C3
:104B300089FBFEB5012029490969C14001400029CE
:104B400000D100E000200646FF2168460170FD21EB
:104B5000417000200190224802906846867003F060
:104B600000F8044600BF2546002D3BE0F424002059
:104B7000744601004E6F7264696353656D69636FBB
:104B80006E647563746F72005C2500202020002025
:104B90006C250020282000207C25002030200020CB
:104BA0001A20002038200020150200003C200020A0
:104BB000662600004020002044200020E024002041
:104BC000042000200C250020554901009F490100C8
:104BD000A34A010090240020000700500005005067
:104BE000234B010005D000BF2B4A2C492846FFF774
:104BF00029FB00BFFEBD70B5294A0421012003F046
:104C000020F9044600BF2546002D06D000BF224AE9
:104C100022490D312846FFF715FB00BF70BD70B566
:104C20003DDF044600BF2546002D06D000BF1A4ACE
:104C30001A4916312846FFF705FB00BF70BDFFF784
:104C40009BFBFFF75BFFFFF774FFFFF73EFF00F0F2
:104C50005DFEFFF7ADFBFFF70BFCFFF756FCFFF720
:104C60008CFCFFF7CBFDFFF7A2FEFFF7EEFDFFF791
:104C7000C2FFFFF70BFEFFF759FE00BFFFF7CFFFA4
:104C8000FCE701218140074A916070470121814082
:104C9000044AD1607047000074460100DD02000044
:104CA000077E01000005005070B504460D4600BFA8
:104CB000002D01D0012000E000200646002E05D185
:104CC00000BFE6A22E21FFF7BDFA00BF00BF00BF64
:104CD000002C01D0012000E000200646002E05D166
:104CE00000BFDEA22F21FFF7ADFA00BF00BF28787A
:104CF000207029882879FF231B0219400020020612
:104D0000080A1043607028791B02296819400020A6
:104D10000204080C1043A07029791B02286818406F
:104D200000210902000E0843E07028792071287ADA
:104D30006071190CA8680840000AA0710902A868EF
:104D40000840000CE07170BDF8B505460E46002421
:104D500000BF002E01D0012000E000200746002FF8
:104D600005D100BFBDA24621FFF76CFA00BF00BF0E
:104D700000BF002D01D0012000E000200746002FD9
:104D800005D100BFB5A24721FFF75CFA00BF00BF05
:104D900032782046611CCCB22A542919708800F060
:104DA00054F90019C4B22919B08800F04EF900195D
:104DB000C4B22919F08800F048F90019C4B200BF44
:104DC000072C01D1012000E000200746002F05D16B
:104DD00000BFA2A24F21FFF735FA00BF00BFF8BD08
:104DE000F0B58FB007460D4614461E4600BF002D95
:104DF00001D0012000E0002000900098002805D19B
:104E000000BF96A26821FFF71DFA00BF00BF00BFD8
:104E1000002C01DD012000E0002000900098002817
:104E200005D100BF8DA26921FFF70CFA00BF00BFBA
:104E30001C2107A803F04AF96946087F022188432C
:104E4000801C69460877002008900A900B900C900F
:104E50000D9000BF012108A881766846078700BF32
:104E60000020019031786846017171784171807934
:104E700006218843811C6846817180790821884316
:104E80000146684681718079102188430146684651
:104E9000817180794108490068468171142102A816
:104EA00003F014F90EA8029001A80390684604824A
:104EB000002141828482069502AA07A974480088CD
:104EC000149BA2DF0FB0F0BD7FB5044600BF0121E7
:104ED000684681736F49818100BF6D4A03A9012033
:104EE000A0DF0546002D02D0284604B070BD208802
:104EF00000280DDD68480090228823463C3367482F
:104F00006168FFF76DFF0546002D01D02846ECE7EC
:104F1000208900280EDD62480090228923463C3318
:104F20005E48401FE168FFF75BFF0546002D01D09A
:104F30002846DAE7208A00280EDD5A480090228AA7
:104F400023463C335548001F6169FFF749FF05467A
:104F5000002D01D02846C8E7208B00280EDD5248DE
:104F60000090228B23463C334C48801EE169FFF7BA
:104F700037FF0546002D01D02846B6E7208C0028D3
:104F80000EDD4A480090228C23463C334348C01E25
:104F9000616AFFF725FF0546002D01D02846A4E7EA
:104FA000208D00280EDD42480090228D23463C33A0
:104FB0003A48401EE16AFFF713FF0546002D01D075
:104FC000284692E7206B002813D001A8216BFFF739
:104FD0006BFE384823463C33082201A900902F4835
:104FE000801FFFF7FDFE0546002D01D028467CE717
:104FF00000BF606B00280FD02F480090606B0279D3
:1050000023463C3301682548401CFFF7E9FE05466E
:10501000002D01D0284668E7A06B002813D001A816
:10502000A16BFFF791FE254823463C33072201A9D7
:1050300000901A482730FFF7D3FE0546002D01D017
:10504000284652E700BF00204FE702460A70FF20C3
:105050000002104000124870022070472E2E5C2E75
:105060002E5C2E2E5C2E2E5C2E2E5C536F75726382
:10507000655C626C655C626C655F736572766963C2
:1050800065735C626C655F6469732E630000000089
:10509000482000200A1800004A200020292A000089
:1050A000522000205A200020622000206A20002088
:1050B000722000207A200020822000208A200020F8
:1050C0008A88428270470022D24342827047F8B5F4
:1050D00004460E46207D002820D0B51D2988608911
:1050E00081421AD1288B022817D12068002814D0B9
:1050F00000BF00BFA97EEA7E120211430846C10725
:10510000C90F002902D00020009001E0012000908A
:10511000694620462268904700BF00BFF8BD70B5C1
:1051200005460C462088102804D0112807D05028A6
:105130000FD109E021462846FFF7C2FF0AE02146C9
:105140002846FFF7C0FF05E021462846FFF7BFFFCE
:1051500000E000BF00BF70BDF0B591B004460D4641
:10516000207D002819D00020099000BF08A80079F0
:1051700001090901491C08A801710079F02188433F
:10518000103008A9087100BF697B08A841718079B7
:1051900006218843801C08A988711C210AA802F0F6
:1051A00095FF08A8007A02218843811C08A8017293
:1051B000007A10218843217D002901D0012100E0DF
:1051C0000021090110221140084308A9087200209B
:1051D0000B900D900E90207D002801D009A800E0D2
:1051E00000200F900020109000BF012168468173BD
:1051F0007749818100BF00200290A97B6846017237
:10520000E97B4172807A06218843811C684681725D
:10521000807A08218843014668468172807A10218D
:105220008843014668468172807A41084900684691
:105230008172297B0191142104A802F047FF03A881
:10524000049002A805900121684601830021418352
:105250000121818301A80890A088A31D04AA0AA99E
:10526000A2DF0646002E02D0304611B0F0BDA8687D
:1052700000284DD000BF01216846817355498181C6
:1052800000BF00200290287C6946087200BF684673
:10529000407A0109090168464172407AF021884349
:1052A0006946487200BF6846807A06218843811C9F
:1052B00068468172807A0821884301466846817277
:1052C000807A10218843014668468172807A4108BD
:1052D000490068468172A96800F03AFE0746142129
:1052E00004A802F0F3FE03A8049002A80590684603
:1052F000078300214183018B81830890E088224647
:105300000E3204A9A3DF0646002E03D03046ACE7D8
:105310000020E0810020A8E7F8B504460D46286883
:1053200020600020C043608228792075FF2020740F
:1053300000BF0121684681702749018000BF221DFE
:1053400069460120A0DF0646002E01D03046F8BD98
:1053500029462046FFF700FFF9E733B585B004463C
:105360000025207C6946097E88422FD001210491C6
:105370006846007E2074E08806AB04AA0021A4DF02
:105380000546002D02D0284607B030BD608A13497B
:10539000884219D0207D002816D00020009001906E
:1053A0000290039001210491E18868460180012167
:1053B00081700021818004A8029006A80390608A71
:1053C0006946A6DF054600E0082500BF2846DBE762
:1053D000192A0000082900000F180000FFFF000034
:1053E0008A88028470470022D2430284704738B50D
:1053F00005460C46208B022817D12868002814D0B7
:1054000000BF00BFA17EE27E120211430846C10721
:10541000C90F002902D00020009001E00120009077
:10542000694628462A68904700BF38BD70B50446D3
:105430000D46AE1D3188A089814203D131462046F8
:10544000FFF7D5FF70BD70B505460C4620881028C3
:1054500004D0112807D050280FD109E02146284652
:10546000FFF7BEFF0AE021462846FFF7BCFF05E034
:1054700021462846FFF7DAFF00E000BF00BF70BDFD
:10548000F7B582B0044617460020019001256079E7
:10549000002803D004210198084301902220005DD8
:1054A000002803D002210198084301900398FF28A7
:1054B0000ADD01210198084301907919039800F051
:1054C000AAF94019C5B205E00398C2B22846691C82
:1054D000CDB23A544C20005B002803DD1021019826
:1054E00008430190002618E0A81C14280BD94C2072
:1054F000005B801B4200700023462433C11818460D
:1055000002F09EFD0DE07919720023462433985A6B
:1055100000F081F94019C5B2761C4C20005BB04206
:10552000E2DC00BF4C20005B801B81B24C200153A9
:1055300001983870284605B0F0BD30B595B00546E5
:105540000C4600200D9000BF08A8007D010909014C
:10555000491C08A80175007DF0218843103008A976
:10556000087500BF217B08A84175807D062188430E
:10557000811C08A881751C210EA802F0A7FD08A8AF
:10558000007E10218843103008A9087600200F9073
:10559000119012900DA813900020149000BF0121CB
:1055A00068468177A049818300BF00200690617B17
:1055B00068460176A17B4176807E06218843811C66
:1055C00068468176807E0821884301466846817658
:1055D000807E10218843014668468176807E41089E
:1055E0004900491C68468176142108A802F06EFD26
:1055F00007A8089006A8099001AA00212846FFF7ED
:105600003FFF0146684601850021418514218185BF
:1056100001A80C90E8882B46083308AA0EA9A2DF3F
:1056200015B030BD30B58FB005460C461C2108A81A
:1056300002F04CFD08A9087802218843801C08A9C3
:105640000870002009900B900C900D900E9000BFF8
:105650000121684681727449491C018100BF002004
:105660000190E17B68460171217C417180790621BE
:105670008843811C684681718079082188430146EE
:10568000684681718079102188430146684681719E
:1056900080794108490068468171142103A802F00D
:1056A00015FD02A8039001A804900121684681829B
:1056B0000021C18201210183A0680790E8882B4660
:1056C000103303AA08A9A2DF0FB030BDF8B5044615
:1056D0000E4630682060307960710020C04320841D
:1056E0000021222001554C20015300BF01216846B2
:1056F00081704E49018000BFA21D69460120A0DFD4
:105700000546002D01D02846F8BD31462046FFF75A
:1057100014FF0546002D01D02846F5E7B0680028A3
:1057200008D031462046FFF77DFF0546002D01D009
:105730002846E9E70020E7E7F0B58BB004460F46BE
:10574000208C3B49884222D006AA39462046FFF7E2
:1057500097FE064605960020019002900390049063
:10576000218968468180012181710021018105A87C
:10577000039006A80490208C01A9A6DF0546002D01
:1057800004D16846808AB04200D00C2500E008258C
:1057900028460BB0F0BD70B504460D464C20005BAA
:1057A00014280AD12622A118881E02F049FC4C2098
:1057B000005B401E81B24C2001534C20015B005B1A
:1057C000401C82B24C2002534900204624304552EE
:1057D00070BD01464C20405A142801D10120704769
:1057E0000020FCE70246108C114B984202D1517107
:1057F000002070470820FCE722221154704713B59F
:1058000082B0044601200190208A03AB01AA002146
:10581000A4DF04B010BD02460A70FF200002104051
:105820000012487002207047372A00000D1800004F
:10583000FFFF0000F8B504460120400406686D46ED
:10584000771B402F01D9402000E038460246294608
:1058500020468C30FEF798FCF8BDF8B504460E469D
:1058600015466327012037490870084644600581C2
:1058700031460A3002F038FB3248FFF7DBFF3A4688
:105880003049FE2002F042FAF8BD38B504466320E4
:10589000009000256A462146FE2002F073FA054674
:1058A000052D01D1002038BD002D01D02846FAE792
:1058B0002078002800D1F6E70E2001218140224AFD
:1058C000916000BF00BF2078002803D01F480078F7
:1058D0000028F8D00E20012181401B4AD16000BF72
:1058E000002018490870088188720021154880300E
:1058F000C160684602781349FE2002F007FA0546A7
:105900002846D0E7012011490870704770B500257E
:10591000002D15D00B48FFF7B8FF044600BF002C40
:1059200001D0052C01D1012000E000200646002E08
:1059300005D100BF06A27E21FEF784FC00BF00BF98
:1059400070BD00008C250020000500509220002032
:105950002E2E5C2E2E5C2E2E5C2E2E5C2E2E5C535C
:105960006F757263655C626C655C626C655F6572C5
:10597000726F725F6C6F672E63000000FEB50546A4
:105980000E4614462078801C1F21081A80B2009011
:105990002178891C881969466DDF019001980028DB
:1059A00001D00198FEBD2879002808D028796946E1
:1059B0000988884203DA28790090082700E009273F
:1059C00068460088401CC1B22278501C2070B15437
:1059D0002178481C20707754217868460088081880
:1059E00020700020DEE7F8B505460C462078001D43
:1059F0001F2801DD0C20F8BD684669DF0646002E31
:105A000001D03046F7E703212278501C2070A954BA
:105A100019212278501C2070A95420784119684619
:105A2000008800F08AFA2178401820700020E2E710
:105A3000F8B505460F4616461C466868002801D191
:105A40000720F8BD2078801C298840181F2801DD18
:105A50000C20F6E72878401CC1B22278501C207038
:105A6000B1542178481C207077542A8823789819DB
:105A7000696802F081FA20782978401820700020A7
:105A8000DFE730B503461078C01C1F2801DD0C206D
:105A900030BD02241578681C10704C550A24157806
:105AA000681C10704C551578681C10704B55002000
:105AB000EEE7FFB587B006461D46109C0020069015
:105AC00020780590002747E0B900706841180A88DF
:105AD0006846028149884181002203A902A854DF57
:105AE00004900498002802D004980BB0F0BD6846DA
:105AF000017B099881422ED10698002801D0002010
:105B000000E00220019020786946097B4118019845
:105B100008181F2801DD0C20E7E70698002809D1A6
:105B20002078401C20702278511C08982170A854BD
:105B3000012006902078421903A902A854DF04909E
:105B40000498002801D00498CFE720786946097BA3
:105B50004018207000BF7F1C3088B842B4DC069823
:105B6000002806D021780598401C081AC1B2059873
:105B700029540020B9E7FFB581B0074615460A9EB3
:105B8000009602223846049B0299FFF792FF0446D2
:105B9000002C02D0204605B0F0BD00961022294608
:105BA0003846049BFFF785FF0446002C01D02046B1
:105BB000F1E70020EFE701460888062808DB08889F
:105BC0001922D201904205DD0888E04A904201D0B6
:105BD000072070474888062808DB48881922D20128
:105BE000904205DD4888D94A904201D00720F0E76D
:105BF0000888D64A904208D04888904205D0088844
:105C00004A88904201DD0720E3E70020E1E7F8B58C
:105C100006460D4614462078801D1F2801D90C2009
:105C2000F8BD3046FFF7C7FF0746002F01D03846C2
:105C3000F6E705212278501C2070A9541221227801
:105C4000501C2070A95422785119308800F075F941
:105C500021784018207022785119708800F06DF971
:105C60002178401820700020DAE7F8B505460E4686
:105C700014462879801CC7B22078801CC0191F28C0
:105C800001DD0C20F8BD781CC1B22278501C2070B8
:105C9000B154FF212278501C2070B1542278911900
:105CA000288800F04AF9217840182070A888002838
:105CB0000EDDA868002801D10720E3E7AA88237831
:105CC0009819A96802F058F92078297940182070AD
:105CD0000020D7E7FEB507460E461446786B00282D
:105CE00001D10720FEBD0020019032E0796B0C222B
:105CF000019850430D182879801CC0B2009000987C
:105D0000401CC1B22278501C2070B1541621227858
:105D1000501C2070B15422789119288800F00DF998
:105D2000217840182070A88800280EDDA868002877
:105D300001D10720D6E7AA8823789819A96802F02C
:105D40001BF920782979401820700198401CC0B2B6
:105D500001903820C15D01988142C7DC0020C1E775
:105D6000F8B504460F46164600250020307020681E
:105D7000002809D0324639462046FFF7FFFD054688
:105D8000002D01D02846F8BD6079002808D03146A2
:105D90003846FFF728FE0546002D01D02846F2E7D9
:105DA000208900280BDD33463A4601212046083081
:105DB000FFF73EFE0546002D01D02846E3E72069A7
:105DC00000280BD000202169085632463946FFF7DB
:105DD00058FE0546002D01D02846D4E7A08A0028A9
:105DE0000CDD3B4606220221204614300096FFF7C8
:105DF000C2FE0546002D01D02846C4E7A08B00282E
:105E00000CDD3B460722032120461C300096FFF79D
:105E1000B2FE0546002D01D02846B4E7A08C00282C
:105E20000CDD3B4615221421204624300096FFF756
:105E3000A2FE0546002D01D02846A4E7E06A00280E
:105E400009D032463946E06AFFF7E1FE0546002DEB
:105E500001D0284697E7206B002809D03246394602
:105E6000206BFFF702FF0546002D01D028468AE788
:105E70003820005D002809DD324639462046FFF70C
:105E800029FF0546002D01D028467CE728467AE701
:105E900001460889002807D0C868002804D0C868CF
:105EA00000780422104201D1072070470020FCE74F
:105EB00001460889002801DD072070470020FCE723
:105EC000F3B593B00D46002112911191139800285B
:105ED00014D01398FFF7DCFF0446002C02D02046B4
:105EE00015B0F0BD12AA09A91398FFF739FF0446AF
:105EF000002C01D02046F3E709AE00E00026002D7B
:105F000013D02846FFF7D4FF0446002C01D02046CA
:105F1000E6E711AA01A92846FFF722FF0446002C54
:105F200001D02046DCE701AF00E0002710A803798C
:105F30003A46017A304662DFD2E702460A70FF2015
:105F4000000210400012487002207047FFFF00005E
:105F5000F8B505460E46002432782146641C6A5482
:105F600072782146641C6A5400BF022C01D10120C2
:105F700000E000200746002F05D100BF08A21B212A
:105F8000FEF760F900BF00BF2046F8BD70B50446BB
:105F90000D46284601F0CEFF2080656070BD0000F0
:105FA0002E2E5C2E2E5C2E2E5C2E2E5C2E2E5C5306
:105FB0006F757263655C626C655C626C655F73656E
:105FC0007276696365735C626C655F7372765F633A
:105FD0006F6D6D6F6E2E63000A7B002A04D04A68D5
:105FE00002600022027103E00A680260012202716D
:105FF00070470246107900280FD048681368C01A0D
:106000008B68984204D910688B68C018106013E040
:1060100048681060002010710EE010680B68C01A0C
:106020008B68984204D910688B68C01A106003E02E
:1060300008681060012010711068704710B50028C2
:1060400019DAF74A03071B0F083B9B089B00D2583D
:106050008307DC0EFF23A3409A438B071B0E8407A4
:10606000E40EA3401A43EE4B0407240F083CA40897
:10607000A4001A5118E0EB4A03231B02D21883082C
:106080009B00D2588307DC0EFF23A3409A438B0763
:106090001B0E8407E40EA3401A43E24B03242402A0
:1060A0001B198408A4001A5110BD10B50446DE481F
:1060B000846003211120FFF7C1FF10BD10B501203E
:1060C0000004DA494860D94940394860112000F09D
:1060D000DDFC112000F0CCFC0120D54908602F2008
:1060E000FEF742F810BD10B5112001218140CD4AC4
:1060F0008032116000BF01200004CC498860CB4988
:10610000403988600120CA4948602F20FEF72CF8EA
:1061100010BDF0B5024628205043C64B1B68C1187D
:10612000C5480068401C02D1C348026057E0C2481D
:106130008B68006828246043BE4C2468001980687E
:10614000834217D8BC48006828235843B94B1B68C2
:10615000C01880688B68C31AB74800682824604359
:10616000B44C246800198360B34800684862B248A0
:10617000026034E08B68B04D2C6828680DE028255B
:106180004543AC4E3668AD19AD685B1B0446282507
:106190004543A84E3668AD19686A451C07D02825C6
:1061A0004543A44E3668AD19AD689D42E7D3451C02
:1061B0000CD0282545439F4E3668AD19AD68EE1AC0
:1061C000282545439B4F3F68ED19AE608B604862C0
:1061D00028256543974E3668AD196A6200BFF0BD49
:1061E00070B50246944C2168084609E0904200D1FF
:1061F00008E00146282444438E4D2D686419606AE6
:10620000441CF3D100BF441C00D170BD814209D1B0
:10621000894C246828256C43864D2D686419646A6E
:10622000854D2C6028244443824D2D686419A36851
:10623000282444437F4D2D686419656A28244C4303
:106240007C4E3668A419656228244C43794D2D682C
:106250006419606A441C0CD028244443754D2D6891
:106260006419A468E51828244443724E3668A419BA
:10627000A56000BFC9E710B5112000F000FC10BDFB
:1062800010B5142000F0FBFB10BD70B504466B4840
:106290000068002813D0694A216AE06912689047B3
:1062A000054600BF2E46002E07D000BF64A2FF2186
:1062B00053313046FDF7C6FF00BF00BF02E0E16981
:1062C000206A884770BDF8B55B480068401C3BD029
:1062D000002667480078401CC5B2022D00D1002579
:1062E00064480078854225D000F0D8FB0446624817
:1062F0000168204600F0D5FB07464F480068009033
:1063000013E02821009848434A4909684418A068C6
:10631000B84200D90CE0A0683F1AA0688619606AEC
:1063200000902046FFF7B1FF00BF0098401CE8D165
:1063300000BF00BF4E480078800050490E504C48C6
:106340000570FFF79DFF00BFF8BD01464948007882
:10635000474A127890421DD0464800788000474A4C
:106360001058086043480078401C424A107010469C
:106370000078022801D1002010703F4A0868126896
:1063800080183D4A1060104600680002000A106044
:10639000012070470020086000BFFAE7FEB52648DC
:1063A0000068019036480078009074E00098C000C2
:1063B000344909684418257869E018206843616801
:1063C0000F18681CC5B2A078A84200D10025386813
:1063D000022802D0032857D10EE0282178684843CC
:1063E000144909684618307E002804D07868FFF701
:1063F000F7FE0020307648E00CE00F4909682822BB
:1064000051430C4A12688818002101760A4A416AF1
:10641000116000BF08480068401CEED135E0000064
:106420001CED00E000E100E00015014040130140D8
:106430000010014094200020A0200020B420002063
:106440002E2E5C2E2E5C2E2E5C2E2E5C2E2E5C5361
:106450006F757263655C6170705F636F6D6D6F6E99
:106460005C6170705F74696D65722E63000000007E
:10647000B1200020B0200020A4200020A82000206F
:10648000992000209C20002000BF00BF00BF607842
:10649000A84292D100BF0098411EC9B200910028C5
:1064A00084D1FA4801680198814201D00120FEBDE3
:1064B0000020FCE7F0B50346002426E0F34E3668E2
:1064C00028277E43F24F3F68F01986689E4203D921
:1064D0008668F61A86601CE086689B1B86683419FD
:1064E000002686600676E94E3568E84F466A3E60CB
:1064F0004669002E08D00E193602360AC660466973
:10650000066116684662156000BFE0480068401CDE
:10651000D4D100BFF0BDFEB50746DC48006802904C
:10652000DC480078019069E00198C000DA49096808
:1065300045185CE0781C07D03E4628207043D449BB
:1065400009684418676A23E02978182359436A6860
:1065500050182978491C29702978AA78914201D1CC
:1065600000212970466828217143C94A12688C1895
:106570000168012902D1217E002900D037E081681D
:10658000E160C1682161016961614169216200BF07
:10659000C249E0680968401A0002000AC0498842FE
:1065A00008D2BE49E068096800F07BFA216940180A
:1065B000A06011E0B948E168006800F072FA00904C
:1065C00021690098814204D921690098081AA060C5
:1065D00001E00020A06000BF0020E06020610120F9
:1065E0002076801E60623046FFF793FD00BF781C66
:1065F000A0D12878697888429CD100BF0198411EBB
:10660000C9B2019100288FD1A04801680298814247
:1066100001D00120FEBD0020FCE7FEB505469B48E9
:106620000068401C33D099480068282148439849A5
:1066300009684018866800F031FA029097480468AB
:106640002146029800F02DFAC01C0190681C01D16F
:10665000FFF734FD0198B04201D2304600E00198C6
:1066600004192402240A20468E49086000BF00F065
:1066700015FA0090029900F014FA07462046029994
:1066800000F00FFA874201D9FFF7F5FD01E0FFF7AF
:106690002AFDFEBDFEB50020C04301907F4804687E
:1066A0007A4807686846FFF750FE0546FFF776FE12
:1066B0000646002D05D001AA21460098FFF7FAFEF4
:1066C00001260198FFF727FF002800D00126002EA1
:1066D00002D03846FFF7A1FFFEBD30B5014648782D
:1066E000421C8878904200D100220878904201D163
:1066F000002030BD4878182568434C6823184A703C
:106700001846F6E7FFB581B005460E461746E90084
:10671000614A12688818FFF7E0FF0446002C02D196
:10672000042005B0F0BD01202060666000F0B6F9DD
:10673000A060E760049820610A986061FFF7A0FDFF
:106740000020EEE770B505460E46E900524A126891
:106750008818FFF7C2FF0446002C01D1042070BD49
:10676000022020606660FFF78BFD0020F7E770B520
:106770000546E900484A12688818FFF7AEFF04464C
:10678000002C01D1042070BD03202060001F606038
:10679000FFF776FD0020F6E710B5002042490860BB
:1067A0000021414841608160C16000203E4940397C
:1067B00008604860FFF787FD10BD10B5FFF76AFF5E
:1067C00010BDFFB581B00E4617461C462046810716
:1067D000890F01D1012100E00021002902D1072009
:1067E00005B0F0BD002C01D10720F9E7FFF77BFCD5
:1067F0002E490A9808602E48067025480460002536
:106800000CE0002128206843214A126811502820FA
:1068100068431F4A1268801801766D1CB542F0DB90
:1068200028207043041903201A4908701A4804608C
:10683000183400250CE0E900174A12688818002176
:106840000170417087704460182179430C196D1CE8
:10685000032DF0DB0020C0430C49086000201549DF
:10686000087015490870142000F010F90321142055
:10687000FFF7E4FB142000F0FBF80198FFF715FC8C
:1068800000F00CF9054908600020A9E7A0200020CD
:1068900094200020992000209C200020A42000208B
:1068A000FFFF7F004015014040110140B42000204F
:1068B00098200020B0200020B120002070B50346B1
:1068C0000C467A480068002801D1082070BD002AD3
:1068D00001D10720FAE7002B01D10720F6E70021BC
:1068E0001CE028204843714D2D682858002814D1F9
:1068F0000125282048436D4E3668355028204843EE
:106900006A4D2D684019446028204843674D2D6822
:106910004019C26119600020D8E7491C644800781A
:106920008142DEDB0420D1E730B500BF614840681A
:10693000C205D20D002A1ED01346103B184600286F
:106940000CDA5C4C1C3405072D0F083DAD08AD007A
:1069500064598507ED0EEC40A4090AE0564C032566
:106960002D0264198508AD0064598507ED0EEC40D1
:10697000A409E0B200E00420012802D0032804D1D9
:1069800001E0002103E0012101E0022100BF00BF7E
:10699000084630BDFEB504460D461646434800681D
:1069A000002801D10820FEBD41480078844201D270
:1069B000052D01D20720F6E7282060433B490968EE
:1069C0000858012801D00820EDE728206043374906
:1069D000096840184068012801D1284600E00020DD
:1069E0000746FFF7A1FF3B462A4621460096019045
:1069F000FFF788FED7E770B504462C4800680028EA
:106A000001D1082070BD2A480078844201D30720B4
:106A1000F8E728206043254909680858012801D073
:106A20000820EFE7FFF780FF05462146FFF78AFEC3
:106A3000E8E710B51D480068002801D1082010BD06
:106A4000FFF772FF0446FFF792FEF8E710B5044621
:106A500000F024F82060002010BD70B505460E46F9
:106A600014463146284600F01CF82060002070BD16
:106A7000C206D20E012191400F4A11607047C20632
:106A8000D20E012191400D4A11607047C206D20E0C
:106A900001219140094A80321160704708484068DE
:106AA00070470246501A0002000A704794200020E6
:106AB0009820002000ED00E000E100E000E200E0AE
:106AC0000015014070B506460C461546294620467D
:106AD000FDF7D1FB70BDFFB581B00C4616461F46D1
:106AE00020468107890F01D1012100E00021002902
:106AF00002D1072005B0F0BD002C01D10720F9E735
:106B000025480460254806802548076025490A98DD
:106B100008602549019810DF0546002D01D0284660
:106B2000E8E7162023DFE5E738B500BF1B480088FB
:106B3000009069461848006850DF0446052C00D1D3
:106B40000EE0002C06D000BF18A25F212046FDF702
:106B500079FB00BF10480068114909688847E5E7DC
:106B600000BF38BD70B50F480068002810D00D4830
:106B700000688047044600BF2546002D06D000BFB0
:106B80000AA271212846FDF75DFB00BF00BF01E0AE
:106B9000FFF7CAFF70BD0000C0200020C420002005
:106BA000B8200020BC200020C56A01002E2E5C2EDB
:106BB0002E5C2E2E5C2E2E5C2E2E5C536F75726317
:106BC000655C626C655C626C655F737461636B5F6E
:106BD00068616E646C65722E63000000014648882F
:106BE000924A1288904206DB4888904A5288904226
:106BF00001DC012070470020FCE738B505468C48D1
:106C000000888C4988423DD08B480078401C8A49D6
:106C100008708A48007B0978884214DB8848FFF7AF
:106C2000DDFF00282ED181498148008865DF0446B8
:106C3000002C07D081488069002803D07F488169F3
:106C4000204688471EE07D48007C00280FD03B216D
:106C50007748008866DF0446002C07D077488069B3
:106C6000002803D0754881692046884700BF7348D3
:106C70004069002806D000200090704841696846AD
:106C8000884700BF38BD70B505461C2229466B48B1
:106C9000FDF77AFA286800280BD008226348296893
:106CA00001F06AF961486ADF0446002C08D02046EA
:106CB00070BD5E486BDF0446002C01D02046F7E72C
:106CC0000020C0435A49088000205B4908705D4A93
:106CD00000215D48FFF7F2FDEAE710B55A48006869
:106CE000FFF789FE10BD70B55548FFF777FF002804
:106CF0001AD151480078002802D15048456801E077
:106D00004E488568002229464F480068FFF742FE3A
:106D10000446002C07D049488069002803D0474822
:106D200081692046884700BF70BD10B50446A08821
:106D30003F490880082221460E31414801F01CF9E4
:106D400000203D4908703D48C089002801D1FFF767
:106D5000CAFF10BD70B505460020C0433449088005
:106D600000203549087038480068FFF744FE0446A3
:106D7000002C07D031488069002803D02F48816952
:106D80002046884770BD70B50546AC1D20882B494C
:106D9000C989884220D1208B02281DD100BF00BFA5
:106DA000A17EE27E120211430846C107C90F0029E5
:106DB00002D0FFF798FF0FE023480068FFF71BFEA3
:106DC0000646002E07D01D488069002803D01B48C6
:106DD00081693046884700BF70BD10B5044608225F
:106DE000A11D174801F0C8F8FFF77DFF10BD10B5D1
:106DF00004462088102806D0112808D012280ED06A
:106E0000502810D107E02046FFF78FFF0CE0204606
:106E1000FFF7A0FF08E02046FFF7B5FF04E020469B
:106E2000FFF7DBFF00E000BF00BF10BDC82000205F
:106E3000D2200020FFFF0000D020002018270020D3
:106E4000D4200020FB6B0100DC2000200246100C47
:106E50000004FE4B984202D10A8000207047501C6B
:106E600001D10520FAE70B20F8E770B505460121AE
:106E70000907096988B2502101F02AF9F449097813
:106E8000884201D8042070BDF1480078002810D154
:106E900000221146104600F0BFFEEE490880EE4980
:106EA0000878EE4900F0A6FF0446002C01D02046E9
:106EB000E9E713222946E9480068001D00F007FFB2
:106EC0000446002C01D02046DDE7E24A4C2128464A
:106ED00000F0A2FEDF49088008460088DB4A104324
:106EE0000146DE48006800F0E9FE0446002C01D0AF
:106EF0002046C8E7D94800685030D8490860D448CF
:106F00000078401CD24908700020BCE770B50546E7
:106F100001210907096988B2502101F0D9F8D04947
:106F20000978884201D8042070BDCD480078002837
:106F300010D100221146104600F06EFEC9490880AB
:106F4000C5494878C84900F055FF0446002C01D0D7
:106F50002046E9E707222946C3480068001D00F0E3
:106F6000B6FE0446002C01D02046DDE7BD4A1C21B8
:106F7000284600F051FEBB49088008460088B34A05
:106F800010430146B848006800F098FE0446002C03
:106F900001D02046C8E7B44800682030B2490860F4
:106FA000AF480078401CAE4908700020BCE738B5F7
:106FB0000546A7480078002810D100221146104647
:106FC00000F02AFEA3490880A3490878A34900F0ED
:106FD00011FF0446002C01D0204638BD9F490968A6
:106FE00008686946FFF732FF0446002C01D02046AE
:106FF000F3E74C2299480168091D2846FDF7C4F8BB
:10700000944A4C21284600F007FE92490880084621
:1070100000886946098888420BD18D480078401C59
:107020008B4908708D48006850308C4908600020FA
:10703000D3E70B20D1E738B505468948007800280A
:1070400010D100221146104600F0E6FD8549088067
:1070500081494878844900F0CDFE0446002C01D0D7
:10706000204638BD8049096808686946FFF7EEFE8A
:107070000446002C01D02046F3E71C227A48016820
:10708000091D2846FDF780F8764A1C21284600F0A5
:10709000C3FD74490880084600886946098888420B
:1070A0000BD16F480078401C6D4908706E4800682D
:1070B00020306D4908600020D3E70B20D1E710B5E0
:1070C0006549087800F015FE0446002C01D02046E2
:1070D00010BD6149487800F00CFE0446002C01D038
:1070E0002046F5E70020F3E738B5002211461046A8
:1070F00000F092FD0090002409E0682161435B4AA2
:1071000088186A464C2100F087FD0090641C58489E
:1071100000788442F1DB684600884E49098888423D
:1071200001D0012038BD0020FCE738B5002211460F
:10713000104600F071FD009000240BE068216143CF
:107140004A4A891808464C306A461C2100F064FD02
:107150000090641C464800788442EFDB6846008853
:1071600040490988884201D0012038BD0020FCE751
:1071700070B505463F48406E002802D03D4C503463
:1071800000E000243B484C30008B82B221463A4854
:107190000088A9DF70BD10B500210020374A1070AB
:1071A000374A10702FE068224A43304BD018427A99
:1071B0005207D20F13D0027852B2314B1B78DB004A
:1071C000304CE25402461E322D4B1B78DB001B195B
:1071D0005A602B4A1278521C294B1A7012E002781E
:1071E00052B2264B1B78DB00274CE2540246423257
:1071F000224B1B78DB001B195A60204A1278521C64
:107200001E4B1A70491C1A4800788142CBDB10BD16
:107210007CB5054616480078072801DB04207CBDB4
:10722000322229461348001D00F0A6FEE9881148C5
:10723000C187002141660E4800780E4908600C495C
:1072400009780B4A1278521C094B1FE00000DE45FA
:10725000F4200020E82000206C270020EC200020F3
:10726000F5200020EA200020F0200020E027002068
:10727000E420002078270020E2200020E5200020E4
:10728000E6200020F02A0020B82A00201A70682288
:107290005143FE4A88186822FD49FCF775FFFFF745
:1072A0007AFF00221146FB480088A9DF0446002C23
:1072B00001D02046B3E7F648FFF7D7FD0446042C7B
:1072C0000FD1F548406800280BD004200090F0480A
:1072D000007840B269460871EF48416868468847BF
:1072E00003E0002C01D0204699E7EB4840680028D5
:1072F0000BD000200090E648007840B26946087143
:10730000E54841686846884700BF002087E770B5B8
:10731000DF480568002D0FDBE048007885420BDA76
:1073200068216943D94A88186822D949FCF72CFF9B
:10733000FFF731FF002400E00724204670BD70B540
:1073400005460020C043D2490860002411E06820AF
:107350006043CE494018C08FA84209D168206043DD
:107360000A4681186822CA48FCF70EFF002070BD4B
:10737000641CCA4800788442E9DB0520F7E770B551
:1073800094B00020C54908702FE001A8FFF70FFE58
:107390000546052D00D12CE0002D02D0284614B062
:1073A00070BD019EBD480078864201DD0B20F6E7E6
:1073B00068217143B54A88184C2201A9FCF7E4FE04
:1073C000B648007886420FD1002168207043AF4A4A
:1073D00080184166491E682070438018C164AF4818
:1073E0000078401CAD49087000BFAC480078072801
:1073F000CBDB00BF00241DE00DA8FFF71CFE0546F7
:10740000052D00D11AE0002D01D02846C7E7A34979
:1074100009780D98884201DD0B20C0E768220D999C
:1074200051439A4A891808464C301C220DA9FCF792
:10743000ABFE641C994800788442DDDB00BF9748AE
:10744000047810E00021C943682060438F4A11503E
:1074500000216820604380184166491E682060430F
:107460008018C164641C072CECDBFFF794FE00203D
:1074700095E702461078C007C00F0B78DB07DB0FDB
:10748000984211D110788007C00F0B789B07DB0F53
:10749000984209D110784007C00F0B785B07DB0FCB
:1074A000984201D1012070470020FCE70246107885
:1074B000C007C00F0B78DB07DB0F984221D1107893
:1074C0008007C00F0B789B07DB0F984219D110780B
:1074D0004007C00F0B785B07DB0F984211D1107883
:1074E0000007C00F0B781B07DB0F984209D11078FB
:1074F000C006C00F0B78DB06DB0F984201D10120DC
:1075000070470020FCE770B504460D4620882988A6
:10751000884217D1A07CC007C00FA97CC907C90F3A
:1075200088420FD1A07C4008A97C4908884209D133
:10753000A07C4208A91CA01C00F0A8FC002801D1D6
:10754000012070BD0020FCE770B504460D461022F6
:107550002946204600F09AFC002801D1012070BD88
:107560000020FCE770B505460C4628782178884253
:1075700008D10622611C681C00F088FC002801D19B
:10758000012070BD0020FCE770B504460D46207850
:107590002978884233D16078697888422FD1A91C34
:1075A000A01CFFF766FF002829D0E91CE01CFFF7AC
:1075B00060FF002823D0291D201DFFF777FF00283A
:1075C0001DD0691D601DFFF771FF002817D0A91D90
:1075D000A01DFFF798FF002811D029461A31204638
:1075E0001A30FFF7B1FF002809D029462A3120467A
:1075F0002A30FFF7B7FF002801D0012070BD00201E
:10760000FCE77CB50446A088224908800020C043DE
:107610001F4908600722A11D1D48423000F0ACFC44
:1076200000211B484166607BC007C00F19D0607BFA
:107630004508072D04DAE80019490856072804DB35
:1076400015488168032088470AE0E800144A10566C
:10765000682250430D4A811868220D48FCF794FDBA
:107660002FE0002527E0E8000E4940184668062272
:1076700007494331701C00F009FC00281AD1E800CA
:10768000084A105668225043004A0DE0E0270020C7
:1076900078270020E22000206C270020E420002032
:1076A000F02A0020B82A002081186822F848FCF748
:1076B0006BFD04E06D1CF74800788542D3DB00BF0A
:1076C00000BFF3480068401C1AD0F148FFF750FD96
:1076D0000546002D03D0F048816828468847EE48CB
:1076E000406800280BD001200090E948007840B2A3
:1076F00069460871E84841686846884700BF00BF8E
:107700007CBD70B50546E2480068401C06D10022E9
:107710001146E2480088A9DF044603E0DC48FFF791
:1077200027FD0446002C03D0DB48816820468847AB
:1077300070BD7CB504462146D548001DFFF724FFE7
:10774000002834D132222146D148001D00F014FC1B
:10775000E188CF48C187FFF788FB0546042D0FD18C
:10776000CD48406800280BD004200090C84800781D
:1077700040B269460871C84841686846884705E0D4
:10778000002D03D0C448816828468847C248406815
:1077900000280BD003200090BD48007840B2694615
:1077A0000871BD4841686846884700BF00BF7CBD7E
:1077B00070B504462078002800D070BDB448006839
:1077C000401C1BD1E088FFF7BAFD0546002D02D012
:1077D000052D0AD104E0AE48FFF7CAFC054605E0D6
:1077E0002046FFF715FD054600E000BF00BF002D55
:1077F00003D0A94881682846884702E02046FFF761
:1078000098FF00BFD9E770B505460C22A91DA04816
:10781000363000F0B1FB9E49C88FFFF790FD04465B
:10782000002C11D100229A490A319C48008871DF4E
:107830000446002C03D09848816820468847944825
:10784000FFF796FC044613E0052C11D100221146E7
:107850009248008871DF0446002C03D08E4881686E
:1078600020468847002211468C480088A9DF04463C
:10787000002C03D0884881682046884770BD7CB5BD
:107880000446207805072D0F20780609012D01D127
:10789000012E03DC022D11D1002E0FD07E4840684E
:1078A00000280BD0022000907948007840B2694649
:1078B0000871794841686846884700BF7CBD10B5AB
:1078C000044677480078002803D17348816808206F
:1078D00088472088172812D004DC102807D01428E5
:1078E00019D110E0182812D0522814D103E02046F4
:1078F000FFF787FE10E02046FFF703FF0CE0A01D16
:10790000FFF756FF08E02046FFF77DFF04E0A01DCB
:10791000FFF7B5FF00E000BF00BF10BD38B56048FD
:107920000078002801D1082038BD59480068401C63
:107930001CD0142000906A465549503157480088A1
:10794000AADF0446002C01D02046EDE7504800682D
:107950004F49C864684601884D484166FFF7D7FC27
:107960000446002C01D02046DEE700BFFFF7BCFB39
:1079700000281DD04849087800F0BBF90446002CC7
:1079800001D02046D0E700204649087000250BE0D2
:1079900068216943444A8818FFF767FA0446002CB7
:1079A00001D02046C0E76D1C404800788542EFDBDF
:1079B000FFF7BBFB00281FD03749487800F099F942
:1079C0000446002C01D02046AEE70020384908705C
:1079D00000250DE068216943334A891808464C3078
:1079E000FFF794FA0446002C01D020469CE76D1C5A
:1079F0002E4800788542EDDB0020C04327490880EF
:107A000023490860C86400212148416600208BE7B3
:107A100038B51F48406E002826D1142000906A46D1
:107A20001B4950311D480088AADF0446002C01D0B4
:107A3000204638BD164800681549C8646846018864
:107A4000134841661949097868225143164A891832
:107A500008464C301C220E494C31FCF795FB0C4873
:107A60004C30FFF753FAE4E70820E2E710B50C4882
:107A70000078002801D1082010BD00200B490870B3
:107A8000084908700A490870FFF719FBF4E700007D
:107A900078270020E52000206C270020E22000202D
:107AA000E0200020F4200020E0270020E420002037
:107AB000F520002070B504460D46601C0DD04848E6
:107AC0000078844209DA002D07D0682060434549D8
:107AD0004018407A4007C00F01D0072070BD6820D1
:107AE0006043404A8018014642310722284600F090
:107AF00043FA0020F2E710B50246002107E0C80073
:107B0000394BC01840688B00384CE050491C38484D
:107B100000788142F3DB002107E0C800354BC01834
:107B200040688B00344CE050491C34480078814256
:107B3000F3DB32480078107130480078002801D01B
:107B40002D4800E000201060294800781073284874
:107B50000078002801D0254800E000209060002037
:107B600010BD70B50546A868002801D1072070BD7A
:107B700001210907096988B2502100F0A9FA0728F4
:107B800001D20C20F3E71E4829460EC90EC0682119
:107B90001C4800F09BFA0020C0431A4908601A49AB
:107BA000088000200E4908701849087018490870AC
:107BB00013488078002806D0FFF781FA0446002C8D
:107BC00001D02046D3E7FFF7DAFB0446002C01D0B2
:107BD0002046CCE701200F4908700020C7E70000CD
:107BE000E4200020E0270020F02A00205027002079
:107BF000E6200020B82A002034270020E5200020BD
:107C00006C27002078270020E2200020F4200020AC
:107C1000F5200020E020002070B503460C46002A25
:107C200001D17A4D00E015882846002111E00512A7
:107C300006023543A8B25D5C684005062D0F68401A
:107C400005034540A8B205062D0D6D0068404D1C8A
:107C5000A9B2A142EBDB70BD02216D4A516000BFA9
:107C60006C4909680029FBD06949886000BF6949EF
:107C700009680029FBD06649496802229143644A99
:107C8000516000BF634909680029FBD0704700BFFD
:107C9000614A1278002AFBD101225D4B5A6000BF75
:107CA0005C4A1268002AFBD001600022584B5A60DF
:107CB00000BF584A1268002AFBD0704770B50446CE
:107CC0000D4629462046FFF7E2FF002070BDF8B5BB
:107CD00005460E461746002407E0A0003158284606
:107CE000FFF7D5FF2D1D601CC4B2BC42F5DB0020A0
:107CF000F8BD70B5044601200007006980B26043FA
:107D000005462846FFF7A8FF002070BDF7B584B0F0
:107D1000154601200007006980B2049948430746D0
:107D20003C46A90000220598FFF776FF03902068E3
:107D30000190019880B2029003990298884202D182
:107D4000002007B0F0BD3846FFF786FF241D241D34
:107D5000002607E0B200059881582046FFF797FFFC
:107D6000241D761CAE42F5DB2946381DFFF78FFF38
:107D70002A4903980843019038460199FFF787FF85
:107D80000020DEE7F7B586B007461446012000075D
:107D9000006980B278430490049D2868039003989A
:107DA000000C000401901D490198884204D0002075
:107DB0002070052009B0F0BD2D1D287820702D1DE4
:107DC0002078800005902946059A0798FCF7DCF991
:107DD0002078810000220798FFF71EFF06460F4813
:107DE0003043029003990298884201D00520E1E7D0
:107DF0000020DFE7024601200007006980B25043FF
:107E0000086000207047044908707047FFFF0000B9
:107E100000E5014000E40140F62000200000DE45BE
:107E200010B51848007801214840164908701648D6
:107E30000068002804D0084600781349096888477C
:107E400010BDF8B505460F4616460F4806601520CA
:107E500027DF0446002C01D02046F8BD2946152016
:107E600028DF0446002C01D02046F6E7152023DF4A
:107E70000446002C01D02046EFE73946032049DFB5
:107E8000EBE70000F8200020FC200020034610B59E
:107E90000B439B070FD1042A0DD308C810C9121F2A
:107EA000A342F8D018BA21BA884201D9012010BDE6
:107EB0000020C04310BD002A03D0D30703D0521CBA
:107EC00007E0002010BD03780C78401C491C1B1BE8
:107ED00007D103780C78401C491C1B1B01D1921E52
:107EE000F1D1184610BD0000034670B502460B43A1
:107EF0009B070FD10E4CE60100E008C208C91D1B0C
:107F00009D433542F9D0D9B21170521C00290DD0D1
:107F10001B0AF8E70B78491C1370521C002B05D084
:107F20000B78491C1370521C002BF3D170BD00005C
:107F30000101010130B5441C03E00178401C002917
:107F40000DD08107F9D10B4BDD0104C8D11A914343
:107F50002940FAD0001B0A0603D0C01E30BD001B0A
:107F600030BD0A0401D0801E30BD0902FCD0401E85
:107F700030BD000001010101F8B5042A2CD38307AC
:107F800012D00B78491C0370401C521E83070BD083
:107F90000B78491C0370401C521E830704D00B78D9
:107FA000491C0370401C521E8B079B0F05D0C91A39
:107FB000DF002023DE1B08C90AE0FCF7E5F8F8BD66
:107FC0001D4608C9FD401C46B4402C4310C0121F7A
:107FD000042AF5D2F308C91A521EF0D40B78491CB2
:107FE0000370401C521EEAD40B78491C0370401CDD
:107FF000521EE4D409780170F8BD431A70B593425B
:108000001BD28918801804E0491E521E0B78401EAE
:1080100003709307F8D106E010390B461038103A78
:1080200078CB78C01038102AF6D203E0001F091F61
:108030000B680360121FF9D570BDFCF7A5F870BD81
:10804000F8B5064614460843800707D0751AA542BE
:1080500019D20819102D13D2311907E03046FFF755
:10806000CCFFF8BD401E491E02780A70641EF9D28A
:10807000F8BD471B2A463946FFF77EFF641B38468A
:10808000A542F6D3011B22463046FFF775FFF8BD27
:1080900001E004C0091F0429FBD28B0701D502802F
:1080A000801CC90700D00270704700290BD0C3079D
:1080B00002D00270401C491E022904D3830702D556
:1080C0000280801C891EE3E70022EEE70022DFE742
:1080D000002203098B422CD3030A8B4211D30023C5
:1080E0009C464EE003460B433CD4002243088B429F
:1080F00031D303098B421CD3030A8B4201D394462C
:108100003FE0C3098B4201D3CB01C01A524183091E
:108110008B4201D38B01C01A524143098B4201D3D8
:108120004B01C01A524103098B4201D30B01C01A03
:108130005241C3088B4201D3CB00C01A524183087D
:108140008B4201D38B00C01A524143088B4201D3AA
:108150004B00C01A5241411A00D20146524110460A
:1081600070475DE0CA0F00D04942031000D340427F
:10817000534000229C4603098B422DD3030A8B42B5
:1081800012D3FC22890112BA030A8B420CD3890153
:1081900092118B4208D3890192118B4204D3890139
:1081A0003AD0921100E08909C3098B4201D3CB0177
:1081B000C01A524183098B4201D38B01C01A52412C
:1081C00043098B4201D34B01C01A524103098B4230
:1081D00001D30B01C01A5241C3088B4201D3CB001B
:1081E000C01A524183088B4201D38B00C01A5241FE
:1081F000D9D243088B4201D34B00C01A5241411AD5
:1082000000D20146634652415B10104601D3404202
:10821000002B00D54942704763465B1000D34042B3
:1082200001B50020C046C04602BD70477047704788
:10823000754600F023F8AE46050069465346C0086F
:10824000C000854618B020B5FBF7CAFF60BC002708
:108250004908B6460026C0C5C0C5C0C5C0C5C0C512
:10826000C0C5C0C5C0C5403D49008D4670470446E5
:10827000C046C0462046FBF770FF0000004870472C
:10828000282B002001491820ABBEFEE72600020083
:10829000704700000D1801000F1801000A180100B6
:1082A000C082010000200020000100000441010004
:1082B000C083010000210020881A00002041010035
:1082C0000024F400FFFF0100000000000000000097
:1082D000000000000000000000000000000000009E
:1082E000000000000000000000000000000000008E
:1082F000000000000000000000000000000000007E
:10830000000000000000000000000000000000006D
:10831000000000000000000000000000000000005D
:10832000000000000000000000000000000000004D
:10833000000000000000000000000000000000003D
:10834000000000000000000000000000000000002D
:10835000000000000000000000000000000000001D
:10836000000000000000000000000000000000000D
:1083700000000000000000000000000000000000FD
:1083800000000000000000000000000000000000ED
:1083900000000000000000000000000000000000DD
:1083A00000000000000000000000000000000000CD
:1083B00000000000000000000000000000000000BD
:04000005000140C1F5
:00000001FF
